:1000000009C021C020C01FC01EC01DC01CC01BC015
:100010001AC019C011241FBECFE9CDBF10E0A0E661
:10002000B0E0EEE3F2E002C005900D92A836B10711
:10003000D9F710E0A8E6B0E001C01D92AA36B107DA
:10004000E1F792D0FAC0DCCFA49A399A86B18760E2
:1000500086B9379A089587B9369A3699FECF24B172
:1000600035B1C901089599B79B7F99BF98B794603E
:1000700098BF12BE99B7916099BFC39808B602FEA7
:10008000FDCF98B7946098BF98E080FF02C0C39AF4
:1000900001C0C39808B602FEFDCF28B7246028BF70
:1000A000915011F08695F1CFC39A08B602FEFDCFAC
:1000B00088B7846088BF0895EF92FF92CF93DF9353
:1000C000E82EE7017E01F92EE70101C0CCDF89911E
:1000D0008823E1F7DF91CF91FF90EF900895EF92A1
:1000E000FF920F931F93DF93CF93CDB7DEB7C55029
:1000F000CDBF8C0197FF06C08DE2B5DF109501954D
:100100001F4F09C0009729F48BE2ADDF80E3ABDF1E
:1001100022C08BE2A8DFFE01319685E0DF011D924F
:100120008A95E9F72AE030E0C801B9015FD08193F0
:100130008B0161157105C1F78E010A5F1F4F7E01AA
:100140000894E11CF11CF80182918F01805D8BDF26
:100150000E151F05C1F7CB5FCDBFCF91DF911F916A
:100160000F91FF90EF9008950F931F93CF93DF931C
:10017000BB9AC39A8FB582608FBD83B7816083BFFE
:1001800063DF83E586BF87B3856087BB87B38D7EDA
:1001900087BB88B38D7E88BBC29AC09882E05BDF44
:1001A0008C0187B3826187BB87B38A7F87BB88B3A3
:1001B0008A7F88BBC19AC49881E04DDFEC0183E05F
:1001C0000438180704F783E0C438D807E4F680E65B
:1001D00090E072DFC80183DF80E245DF84E690E0D3
:1001E0006BDFCE017CDF8AE03EDFCDCF97FB092EAF
:1001F00007260AD077FD04D00CD006D000201AF4D0
:10020000709561957F4F0895F6F7909581959F4F72
:100210000895AA1BBB1B51E107C0AA1FBB1FA6174D
:10022000B70710F0A61BB70B881F991F5A95A9F79F
:0E02300080959095BC01CD010895F894FFCF04
:08023E00583A2000593A200053
:00000001FF
